{
    "_format": "hh3-artifact-1",
    "contractName": "Forum",
    "sourceName": "contracts/Forum.sol",
    "abi": [
        {
            "anonymous": false,
            "inputs": [
                {
                    "indexed": true,
                    "internalType": "uint256",
                    "name": "id",
                    "type": "uint256"
                },
                {
                    "indexed": false,
                    "internalType": "uint256",
                    "name": "voteCount",
                    "type": "uint256"
                }
            ],
            "name": "StatementVote",
            "type": "event"
        },
        {
            "anonymous": false,
            "inputs": [
                {
                    "indexed": true,
                    "internalType": "address",
                    "name": "user",
                    "type": "address"
                },
                {
                    "indexed": false,
                    "internalType": "string",
                    "name": "action",
                    "type": "string"
                },
                {
                    "indexed": false,
                    "internalType": "uint256",
                    "name": "count",
                    "type": "uint256"
                }
            ],
            "name": "UserVote",
            "type": "event"
        },
        {
            "inputs": [],
            "name": "MAX_STATEMENT_LENGTH",
            "outputs": [
                {
                    "internalType": "uint256",
                    "name": "",
                    "type": "uint256"
                }
            ],
            "stateMutability": "view",
            "type": "function"
        },
        {
            "inputs": [],
            "name": "USER_CREDIT_BUDGET",
            "outputs": [
                {
                    "internalType": "uint256",
                    "name": "",
                    "type": "uint256"
                }
            ],
            "stateMutability": "view",
            "type": "function"
        },
        {
            "inputs": [
                {
                    "internalType": "string",
                    "name": "_statement",
                    "type": "string"
                }
            ],
            "name": "addStatement",
            "outputs": [],
            "stateMutability": "nonpayable",
            "type": "function"
        },
        {
            "inputs": [],
            "name": "statementCount",
            "outputs": [
                {
                    "internalType": "uint256",
                    "name": "",
                    "type": "uint256"
                }
            ],
            "stateMutability": "view",
            "type": "function"
        },
        {
            "inputs": [
                {
                    "internalType": "uint256",
                    "name": "",
                    "type": "uint256"
                }
            ],
            "name": "statements",
            "outputs": [
                {
                    "internalType": "uint256",
                    "name": "id",
                    "type": "uint256"
                },
                {
                    "internalType": "string",
                    "name": "text",
                    "type": "string"
                },
                {
                    "internalType": "uint256",
                    "name": "voteCount",
                    "type": "uint256"
                },
                {
                    "internalType": "uint256",
                    "name": "timestamp",
                    "type": "uint256"
                }
            ],
            "stateMutability": "view",
            "type": "function"
        },
        {
            "inputs": [
                {
                    "internalType": "address",
                    "name": "",
                    "type": "address"
                }
            ],
            "name": "userUsedCredits",
            "outputs": [
                {
                    "internalType": "uint256",
                    "name": "",
                    "type": "uint256"
                }
            ],
            "stateMutability": "view",
            "type": "function"
        },
        {
            "inputs": [
                {
                    "internalType": "address",
                    "name": "",
                    "type": "address"
                },
                {
                    "internalType": "uint256",
                    "name": "",
                    "type": "uint256"
                }
            ],
            "name": "userVotes",
            "outputs": [
                {
                    "internalType": "uint256",
                    "name": "",
                    "type": "uint256"
                }
            ],
            "stateMutability": "view",
            "type": "function"
        },
        {
            "inputs": [
                {
                    "components": [
                        {
                            "internalType": "uint256",
                            "name": "statementId",
                            "type": "uint256"
                        },
                        {
                            "internalType": "uint256",
                            "name": "voteCount",
                            "type": "uint256"
                        }
                    ],
                    "internalType": "struct Forum.Vote[]",
                    "name": "_voteSet",
                    "type": "tuple[]"
                }
            ],
            "name": "vote",
            "outputs": [],
            "stateMutability": "nonpayable",
            "type": "function"
        }
    ],
    "bytecode": "0x6080604052348015600e575f5ffd5b50610a8e8061001c5f395ff3fe608060405234801561000f575f5ffd5b5060043610610085575f3560e01c8063ac3f58a811610058578063ac3f58a81461010d578063ce4bee8414610130578063e06e716914610138578063ed0e62bf14610140575f5ffd5b80633443206a1461008957806349a673cd1461009e5780635bcf3fc6146100d05780638b3511f7146100e3575b5f5ffd5b61009c610097366004610639565b610148565b005b6100bd6100ac3660046106c2565b60036020525f908152604090205481565b6040519081526020015b60405180910390f35b61009c6100de3660046106e2565b610248565b6100bd6100f1366004610743565b600260209081525f928352604080842090915290825290205481565b61012061011b36600461076b565b61058c565b6040516100c79493929190610782565b6100bd606481565b6100bd5f5481565b6100bd607881565b607881111561019e5760405162461bcd60e51b815260206004820181905260248201527f53746174656d656e742065786365656473206d6178696d756d206c656e67746860448201526064015b60405180910390fd5b60405180608001604052805f54815260200183838080601f0160208091040260200160405190810160405280939291908181526020018383808284375f920182905250938552505050602080830182905242604093840152815482526001808252929091208351815590830151909182019061021a9082610864565b50604082015160028201556060909101516003909101555f8054908061023f83610933565b91905055505050565b806102955760405162461bcd60e51b815260206004820152601860248201527f566f7465207365742063616e6e6f7420626520656d70747900000000000000006044820152606401610195565b5f805b828110156104b4575f8484838181106102b3576102b361094b565b9050604002018036038101906102c9919061095f565b90505f54815f0151106103155760405162461bcd60e51b8152602060048201526014602482015273125b9d985b1a59081cdd185d195b595b9d08125160621b6044820152606401610195565b335f908152600260209081526040808320845184528252909120549082015181036103415750506104ac565b5f5f5f8460200151841061035c578460200151846001610364565b8385602001515f5b919450925090505f61037684806109ae565b61038084806109ae565b61038a91906109cb565b905081156103a35761039c81896109de565b97506103b0565b6103ad8189610a04565b97505b60208087018051335f908152600280855260408083208c51845286528083209390935592518a518252600190945220015486916103ec91610a2b565b6103f691906109cb565b86515f908152600160209081526040918290206002019290925581880151815182815260048184015263766f746560e01b6060820152928301525133917f1a88b3046a78b92a0b0d984b0a88148e6ae2cd21b99982fac5f289deed06b3e9919081900360800190a285515f818152600160209081526040918290206002015491519182527f626cdb61843cc2ddedf8067ed5ddf8eae2986f91d810a0ac2e3b38dd2edd844d910160405180910390a25050505050505b600101610298565b50335f908152600360205260409020546064906104d2908390610a04565b131561052f5760405162461bcd60e51b815260206004820152602660248201527f496e73756666696369656e74206372656469747320666f72207468697320766f6044820152651d19481cd95d60d21b6064820152608401610195565b5f81121561055e5761054081610a3e565b335f9081526003602052604090205461055991906109cb565b610578565b335f90815260036020526040902054610578908290610a2b565b335f90815260036020526040902055505050565b600160208190525f9182526040909120805491810180546105ac906107e0565b80601f01602080910402602001604051908101604052809291908181526020018280546105d8906107e0565b80156106235780601f106105fa57610100808354040283529160200191610623565b820191905f5260205f20905b81548152906001019060200180831161060657829003601f168201915b5050505050908060020154908060030154905084565b5f5f6020838503121561064a575f5ffd5b823567ffffffffffffffff811115610660575f5ffd5b8301601f81018513610670575f5ffd5b803567ffffffffffffffff811115610686575f5ffd5b856020828401011115610697575f5ffd5b6020919091019590945092505050565b80356001600160a01b03811681146106bd575f5ffd5b919050565b5f602082840312156106d2575f5ffd5b6106db826106a7565b9392505050565b5f5f602083850312156106f3575f5ffd5b823567ffffffffffffffff811115610709575f5ffd5b8301601f81018513610719575f5ffd5b803567ffffffffffffffff81111561072f575f5ffd5b8560208260061b8401011115610697575f5ffd5b5f5f60408385031215610754575f5ffd5b61075d836106a7565b946020939093013593505050565b5f6020828403121561077b575f5ffd5b5035919050565b848152608060208201525f8451806080840152806020870160a085015e5f60a0828501015260a0601f19601f83011684010191505083604083015282606083015295945050505050565b634e487b7160e01b5f52604160045260245ffd5b600181811c908216806107f457607f821691505b60208210810361081257634e487b7160e01b5f52602260045260245ffd5b50919050565b601f82111561085f57805f5260205f20601f840160051c8101602085101561083d5750805b601f840160051c820191505b8181101561085c575f8155600101610849565b50505b505050565b815167ffffffffffffffff81111561087e5761087e6107cc565b6108928161088c84546107e0565b84610818565b6020601f8211600181146108c4575f83156108ad5750848201515b5f19600385901b1c1916600184901b17845561085c565b5f84815260208120601f198516915b828110156108f357878501518255602094850194600190920191016108d3565b508482101561091057868401515f19600387901b60f8161c191681555b50505050600190811b01905550565b634e487b7160e01b5f52601160045260245ffd5b5f600182016109445761094461091f565b5060010190565b634e487b7160e01b5f52603260045260245ffd5b5f6040828403128015610970575f5ffd5b506040805190810167ffffffffffffffff81118282101715610994576109946107cc565b604052823581526020928301359281019290925250919050565b80820281158282048414176109c5576109c561091f565b92915050565b818103818111156109c5576109c561091f565b8181035f8312801583831316838312821617156109fd576109fd61091f565b5092915050565b8082018281125f831280158216821582161715610a2357610a2361091f565b505092915050565b808201808211156109c5576109c561091f565b5f600160ff1b8201610a5257610a5261091f565b505f039056fea2646970667358221220b6aa931361687f014faa38f3d8c2976e27b1a583ece8cfddfc899609d7c8fd6264736f6c634300081c0033",
    "linkReferences": {},
    "deployedLinkReferences": {},
    "immutableReferences": {},
    "inputSourceName": "project/contracts/Forum.sol",
    "buildInfoId": "solc-0_8_28-7fdcbfe9d640ce721bc1671e21a9c403b4d94ae8"
}