{
    "_format": "hh3-artifact-1",
    "contractName": "Forum",
    "sourceName": "contracts/Forum.sol",
    "abi": [
        {
            "anonymous": false,
            "inputs": [
                {
                    "indexed": true,
                    "internalType": "uint256",
                    "name": "id",
                    "type": "uint256"
                },
                {
                    "indexed": false,
                    "internalType": "uint256",
                    "name": "voteCount",
                    "type": "uint256"
                }
            ],
            "name": "StatementVote",
            "type": "event"
        },
        {
            "anonymous": false,
            "inputs": [
                {
                    "indexed": true,
                    "internalType": "address",
                    "name": "user",
                    "type": "address"
                },
                {
                    "indexed": false,
                    "internalType": "string",
                    "name": "action",
                    "type": "string"
                },
                {
                    "indexed": false,
                    "internalType": "uint256",
                    "name": "count",
                    "type": "uint256"
                }
            ],
            "name": "UserVote",
            "type": "event"
        },
        {
            "stateMutability": "nonpayable",
            "type": "fallback"
        },
        {
            "inputs": [],
            "name": "MAX_STATEMENT_LENGTH",
            "outputs": [
                {
                    "internalType": "uint256",
                    "name": "",
                    "type": "uint256"
                }
            ],
            "stateMutability": "view",
            "type": "function"
        },
        {
            "inputs": [],
            "name": "USER_CREDIT_BUDGET",
            "outputs": [
                {
                    "internalType": "uint256",
                    "name": "",
                    "type": "uint256"
                }
            ],
            "stateMutability": "view",
            "type": "function"
        },
        {
            "inputs": [
                {
                    "internalType": "string",
                    "name": "_statement",
                    "type": "string"
                }
            ],
            "name": "addStatement",
            "outputs": [],
            "stateMutability": "nonpayable",
            "type": "function"
        },
        {
            "inputs": [
                {
                    "internalType": "uint256",
                    "name": "_rank",
                    "type": "uint256"
                }
            ],
            "name": "getRankedStatement",
            "outputs": [
                {
                    "components": [
                        {
                            "internalType": "uint256",
                            "name": "id",
                            "type": "uint256"
                        },
                        {
                            "internalType": "string",
                            "name": "text",
                            "type": "string"
                        },
                        {
                            "internalType": "uint256",
                            "name": "voteCount",
                            "type": "uint256"
                        },
                        {
                            "internalType": "uint256",
                            "name": "rank",
                            "type": "uint256"
                        },
                        {
                            "internalType": "uint256",
                            "name": "timestamp",
                            "type": "uint256"
                        }
                    ],
                    "internalType": "struct Forum.Statement",
                    "name": "",
                    "type": "tuple"
                }
            ],
            "stateMutability": "view",
            "type": "function"
        },
        {
            "inputs": [
                {
                    "internalType": "uint256",
                    "name": "_start",
                    "type": "uint256"
                },
                {
                    "internalType": "uint256",
                    "name": "_end",
                    "type": "uint256"
                }
            ],
            "name": "getRankedStatementsRange",
            "outputs": [
                {
                    "components": [
                        {
                            "internalType": "uint256",
                            "name": "id",
                            "type": "uint256"
                        },
                        {
                            "internalType": "string",
                            "name": "text",
                            "type": "string"
                        },
                        {
                            "internalType": "uint256",
                            "name": "voteCount",
                            "type": "uint256"
                        },
                        {
                            "internalType": "uint256",
                            "name": "rank",
                            "type": "uint256"
                        },
                        {
                            "internalType": "uint256",
                            "name": "timestamp",
                            "type": "uint256"
                        }
                    ],
                    "internalType": "struct Forum.Statement[]",
                    "name": "",
                    "type": "tuple[]"
                }
            ],
            "stateMutability": "view",
            "type": "function"
        },
        {
            "inputs": [],
            "name": "getUserVoteSet",
            "outputs": [
                {
                    "components": [
                        {
                            "internalType": "uint256",
                            "name": "statementId",
                            "type": "uint256"
                        },
                        {
                            "internalType": "uint256",
                            "name": "voteCount",
                            "type": "uint256"
                        }
                    ],
                    "internalType": "struct Forum.Vote[]",
                    "name": "",
                    "type": "tuple[]"
                }
            ],
            "stateMutability": "view",
            "type": "function"
        },
        {
            "inputs": [],
            "name": "statementCount",
            "outputs": [
                {
                    "internalType": "uint256",
                    "name": "",
                    "type": "uint256"
                }
            ],
            "stateMutability": "view",
            "type": "function"
        },
        {
            "inputs": [
                {
                    "internalType": "uint256",
                    "name": "",
                    "type": "uint256"
                }
            ],
            "name": "statementRankings",
            "outputs": [
                {
                    "internalType": "uint256",
                    "name": "",
                    "type": "uint256"
                }
            ],
            "stateMutability": "view",
            "type": "function"
        },
        {
            "inputs": [
                {
                    "internalType": "uint256",
                    "name": "",
                    "type": "uint256"
                }
            ],
            "name": "statements",
            "outputs": [
                {
                    "internalType": "uint256",
                    "name": "id",
                    "type": "uint256"
                },
                {
                    "internalType": "string",
                    "name": "text",
                    "type": "string"
                },
                {
                    "internalType": "uint256",
                    "name": "voteCount",
                    "type": "uint256"
                },
                {
                    "internalType": "uint256",
                    "name": "rank",
                    "type": "uint256"
                },
                {
                    "internalType": "uint256",
                    "name": "timestamp",
                    "type": "uint256"
                }
            ],
            "stateMutability": "view",
            "type": "function"
        },
        {
            "inputs": [
                {
                    "internalType": "address",
                    "name": "",
                    "type": "address"
                }
            ],
            "name": "userUsedCredits",
            "outputs": [
                {
                    "internalType": "uint256",
                    "name": "",
                    "type": "uint256"
                }
            ],
            "stateMutability": "view",
            "type": "function"
        },
        {
            "inputs": [
                {
                    "internalType": "address",
                    "name": "",
                    "type": "address"
                },
                {
                    "internalType": "uint256",
                    "name": "",
                    "type": "uint256"
                }
            ],
            "name": "userVoteSets",
            "outputs": [
                {
                    "internalType": "uint256",
                    "name": "statementId",
                    "type": "uint256"
                },
                {
                    "internalType": "uint256",
                    "name": "voteCount",
                    "type": "uint256"
                }
            ],
            "stateMutability": "view",
            "type": "function"
        },
        {
            "inputs": [
                {
                    "internalType": "address",
                    "name": "",
                    "type": "address"
                },
                {
                    "internalType": "uint256",
                    "name": "",
                    "type": "uint256"
                }
            ],
            "name": "userVotes",
            "outputs": [
                {
                    "internalType": "uint256",
                    "name": "",
                    "type": "uint256"
                }
            ],
            "stateMutability": "view",
            "type": "function"
        },
        {
            "inputs": [
                {
                    "components": [
                        {
                            "internalType": "uint256",
                            "name": "statementId",
                            "type": "uint256"
                        },
                        {
                            "internalType": "uint256",
                            "name": "voteCount",
                            "type": "uint256"
                        }
                    ],
                    "internalType": "struct Forum.Vote[]",
                    "name": "_voteSet",
                    "type": "tuple[]"
                }
            ],
            "name": "vote",
            "outputs": [],
            "stateMutability": "nonpayable",
            "type": "function"
        }
    ],
    "bytecode": "0x6080604052348015600e575f5ffd5b506115358061001c5f395ff3fe608060405234801561000f575f5ffd5b50600436106100c7575f3560e01c8063ab43d62f11610084578063dbf7b3bd11610061578063dbf7b3bd146101d4578063e06e7169146101e7578063ed0e62bf146101ef578063f689e578146101f757005b8063ab43d62f14610193578063ac3f58a8146101a8578063ce4bee84146101cc57005b806306592064146100c9578063263aa5a8146100f65780633443206a1461011657806349a673cd146101295780635bcf3fc6146101565780638b3511f714610169575b005b6100dc6100d7366004610fbd565b610217565b604080519283526020830191909152015b60405180910390f35b610109610104366004610fe5565b61024f565b6040516100ed919061107b565b6100c76101243660046110de565b610513565b61014861013736600461114c565b60056020525f908152604090205481565b6040519081526020016100ed565b6100c761016436600461116c565b610658565b610148610177366004610fbd565b600360209081525f928352604080842090915290825290205481565b61019b610a2f565b6040516100ed91906111cd565b6101bb6101b636600461121b565b610aa9565b6040516100ed959493929190611232565b610148606481565b6101486101e236600461121b565b610b5c565b6101485f5481565b610148607881565b61020a61020536600461121b565b610b7b565b6040516100ed9190611267565b6004602052815f5260405f208181548110610230575f80fd5b5f91825260209091206002909102018054600190910154909250905082565b60605f5483106102b25760405162461bcd60e51b8152602060048201526024808201527f5374617274206973206c6172676572207468616e2073746174656d656e7420636044820152631bdd5b9d60e21b60648201526084015b60405180910390fd5b5f5482111561030e5760405162461bcd60e51b815260206004820152602260248201527f456e64206973206c6172676572207468616e2073746174656d656e7420636f756044820152611b9d60f21b60648201526084016102a9565b81831061035d5760405162461bcd60e51b815260206004820152601b60248201527f5374617274206d757374206265206c657373207468616e20656e64000000000060448201526064016102a9565b5f610368848461128d565b67ffffffffffffffff811115610380576103806112a0565b6040519080825280602002602001820160405280156103df57816020015b6103cc6040518060a001604052805f8152602001606081526020015f81526020015f81526020015f81525090565b81526020019060019003908161039e5790505b509050835b838110156105095760015f60028381548110610402576104026112b4565b905f5260205f20015481526020019081526020015f206040518060a00160405290815f820154815260200160018201805461043c906112c8565b80601f0160208091040260200160405190810160405280929190818152602001828054610468906112c8565b80156104b35780601f1061048a576101008083540402835291602001916104b3565b820191905f5260205f20905b81548152906001019060200180831161049657829003601f168201915b50505091835250506002820154602082015260038201546040820152600490910154606090910152826104e6878461128d565b815181106104f6576104f66112b4565b60209081029190910101526001016103e4565b5090505b92915050565b60788111156105645760405162461bcd60e51b815260206004820181905260248201527f53746174656d656e742065786365656473206d6178696d756d206c656e67746860448201526064016102a9565b6040518060a001604052805f54815260200183838080601f0160208091040260200160405190810160405280939291908181526020018383808284375f920182905250938552505050602080830182905281546040808501829052426060909501949094528252600180825292909120835181559083015190918201906105eb908261134c565b506040820151600280830191909155606083015160038301556080909201516004909101555f805482546001810184559282527f405787fa12a823e0f2b7631cc41b3ba8828b3321ca811111fa75cd3aa3bb5ace9092018290558061064f83611407565b91905055505050565b806106a55760405162461bcd60e51b815260206004820152601860248201527f566f7465207365742063616e6e6f7420626520656d707479000000000000000060448201526064016102a9565b5f805b828110156108d2575f8484838181106106c3576106c36112b4565b9050604002018036038101906106d9919061141f565b90505f54815f0151106107255760405162461bcd60e51b8152602060048201526014602482015273125b9d985b1a59081cdd185d195b595b9d08125160621b60448201526064016102a9565b335f908152600360209081526040808320845184528252909120549082015181036107515750506108ca565b5f5f5f8460200151841061076c578460200151846001610774565b8385602001515f5b919450925090505f610786848061146e565b610790848061146e565b61079a919061128d565b905081156107b3576107ac8189611485565b97506107c0565b6107bd81896114ab565b97505b60208087018051335f9081526003845260408082208b518352855280822092909255915189518352600190935290206002015486916107fe916114d2565b610808919061128d565b86515f90815260016020526040902060020155855161082690610cfa565b6020808701516040805181815260049181019190915263766f746560e01b60608201529182015233907f1a88b3046a78b92a0b0d984b0a88148e6ae2cd21b99982fac5f289deed06b3e99060800160405180910390a285515f818152600160209081526040918290206002015491519182527f626cdb61843cc2ddedf8067ed5ddf8eae2986f91d810a0ac2e3b38dd2edd844d910160405180910390a25050505050505b6001016106a8565b50335f908152600560205260409020546064906108f09083906114ab565b131561094d5760405162461bcd60e51b815260206004820152602660248201527f496e73756666696369656e74206372656469747320666f72207468697320766f6044820152651d19481cd95d60d21b60648201526084016102a9565b5f81121561097c5761095e816114e5565b335f90815260056020526040902054610977919061128d565b610996565b335f908152600560205260409020546109969082906114d2565b335f90815260056020908152604080832093909355600490529081206109bb91610f63565b5f5b82811015610a2957335f9081526004602052604090208484838181106109e5576109e56112b4565b83546001810185555f9485526020909420604090910292909201926002029091019050610a1f828281358155602090910135600190910155565b50506001016109bd565b50505050565b335f908152600460209081526040808320805482518185028101850190935280835260609492939192909184015b82821015610aa0578382905f5260205f2090600202016040518060400160405290815f820154815260200160018201548152505081526020019060010190610a5d565b50505050905090565b600160208190525f918252604090912080549181018054610ac9906112c8565b80601f0160208091040260200160405190810160405280929190818152602001828054610af5906112c8565b8015610b405780601f10610b1757610100808354040283529160200191610b40565b820191905f5260205f20905b815481529060010190602001808311610b2357829003601f168201915b5050505050908060020154908060030154908060040154905085565b60028181548110610b6b575f80fd5b5f91825260209091200154905081565b610ba96040518060a001604052805f8152602001606081526020015f81526020015f81526020015f81525090565b5f548210610c055760405162461bcd60e51b815260206004820152602360248201527f52616e6b206973206c6172676572207468616e2073746174656d656e7420636f6044820152621d5b9d60ea1b60648201526084016102a9565b60015f60028481548110610c1b57610c1b6112b4565b905f5260205f20015481526020019081526020015f206040518060a00160405290815f8201548152602001600182018054610c55906112c8565b80601f0160208091040260200160405190810160405280929190818152602001828054610c81906112c8565b8015610ccc5780601f10610ca357610100808354040283529160200191610ccc565b820191905f5260205f20905b815481529060010190602001808311610caf57829003601f168201915b5050505050815260200160028201548152602001600382015481526020016004820154815250509050919050565b5f818152600160208181526040808420815160a08101909252805482529283018054919392840191610d2b906112c8565b80601f0160208091040260200160405190810160405280929190818152602001828054610d57906112c8565b8015610da25780601f10610d7957610100808354040283529160200191610da2565b820191905f5260205f20905b815481529060010190602001808311610d8557829003601f168201915b50505050508152602001600282015481526020016003820154815260200160048201548152505090505f816060015190505f826040015190505b8115610ee3575f6001816002610df2838761128d565b81548110610e0257610e026112b4565b905f5260205f20015481526020019081526020015f2060020154905080821115610ee1575f610e3260018561128d565b905060015f60028381548110610e4a57610e4a6112b4565b905f5260205f20015481526020019081526020015f205f015460028581548110610e7657610e766112b4565b905f5260205f2001819055508360015f60028481548110610e9957610e996112b4565b905f5260205f20015481526020019081526020015f2060030181905550845f015160028281548110610ecd57610ecd6112b4565b5f918252602090912001559250610ddc9050565b505b60015f54610ef1919061128d565b821015610f4a575f6001816002610f0886846114d2565b81548110610f1857610f186112b4565b905f5260205f20015481526020019081526020015f2060020154905080821015610f48575f610e328460016114d2565b505b505f928352600160205260409092206003019190915550565b5080545f8255600202905f5260205f2090810190610f819190610f84565b50565b5b80821115610f9e575f8082556001820155600201610f85565b5090565b80356001600160a01b0381168114610fb8575f5ffd5b919050565b5f5f60408385031215610fce575f5ffd5b610fd783610fa2565b946020939093013593505050565b5f5f60408385031215610ff6575f5ffd5b50508035926020909101359150565b5f81518084528060208401602086015e5f602082860101526020601f19601f83011685010191505092915050565b805182525f602082015160a0602085015261105160a0850182611005565b90506040830151604085015260608301516060850152608083015160808501528091505092915050565b5f602082016020835280845180835260408501915060408160051b8601019250602086015f5b828110156110d257603f198786030184526110bd858351611033565b945060209384019391909101906001016110a1565b50929695505050505050565b5f5f602083850312156110ef575f5ffd5b823567ffffffffffffffff811115611105575f5ffd5b8301601f81018513611115575f5ffd5b803567ffffffffffffffff81111561112b575f5ffd5b85602082840101111561113c575f5ffd5b6020919091019590945092505050565b5f6020828403121561115c575f5ffd5b61116582610fa2565b9392505050565b5f5f6020838503121561117d575f5ffd5b823567ffffffffffffffff811115611193575f5ffd5b8301601f810185136111a3575f5ffd5b803567ffffffffffffffff8111156111b9575f5ffd5b8560208260061b840101111561113c575f5ffd5b602080825282518282018190525f918401906040840190835b818110156112105783518051845260209081015181850152909301926040909201916001016111e6565b509095945050505050565b5f6020828403121561122b575f5ffd5b5035919050565b85815260a060208201525f61124a60a0830187611005565b604083019590955250606081019290925260809091015292915050565b602081525f6111656020830184611033565b634e487b7160e01b5f52601160045260245ffd5b8181038181111561050d5761050d611279565b634e487b7160e01b5f52604160045260245ffd5b634e487b7160e01b5f52603260045260245ffd5b600181811c908216806112dc57607f821691505b6020821081036112fa57634e487b7160e01b5f52602260045260245ffd5b50919050565b601f82111561134757805f5260205f20601f840160051c810160208510156113255750805b601f840160051c820191505b81811015611344575f8155600101611331565b50505b505050565b815167ffffffffffffffff811115611366576113666112a0565b61137a8161137484546112c8565b84611300565b6020601f8211600181146113ac575f83156113955750848201515b5f19600385901b1c1916600184901b178455611344565b5f84815260208120601f198516915b828110156113db57878501518255602094850194600190920191016113bb565b50848210156113f857868401515f19600387901b60f8161c191681555b50505050600190811b01905550565b5f6001820161141857611418611279565b5060010190565b5f6040828403128015611430575f5ffd5b506040805190810167ffffffffffffffff81118282101715611454576114546112a0565b604052823581526020928301359281019290925250919050565b808202811582820484141761050d5761050d611279565b8181035f8312801583831316838312821617156114a4576114a4611279565b5092915050565b8082018281125f8312801582168215821617156114ca576114ca611279565b505092915050565b8082018082111561050d5761050d611279565b5f600160ff1b82016114f9576114f9611279565b505f039056fea264697066735822122064e9092b527db25122af87c215e8a9afe8d4c499bcf2cc48b393a357f7774bfe64736f6c634300081c0033",
    "linkReferences": {},
    "deployedLinkReferences": {},
    "immutableReferences": {},
    "inputSourceName": "project/contracts/Forum.sol",
    "buildInfoId": "solc-0_8_28-c2ff1d760ecf1e662d29153975e9f687fd7e7e34"
}