{
    "_format": "hh3-artifact-1",
    "contractName": "Forum",
    "sourceName": "contracts/Forum.sol",
    "abi": [
        {
            "anonymous": false,
            "inputs": [
                {
                    "indexed": true,
                    "internalType": "uint256",
                    "name": "id",
                    "type": "uint256"
                },
                {
                    "indexed": false,
                    "internalType": "uint256",
                    "name": "voteCount",
                    "type": "uint256"
                }
            ],
            "name": "StatementVote",
            "type": "event"
        },
        {
            "anonymous": false,
            "inputs": [
                {
                    "indexed": true,
                    "internalType": "address",
                    "name": "user",
                    "type": "address"
                },
                {
                    "indexed": false,
                    "internalType": "string",
                    "name": "action",
                    "type": "string"
                },
                {
                    "indexed": false,
                    "internalType": "uint256",
                    "name": "count",
                    "type": "uint256"
                }
            ],
            "name": "UserVote",
            "type": "event"
        },
        {
            "inputs": [],
            "name": "MAX_STATEMENT_LENGTH",
            "outputs": [
                {
                    "internalType": "uint256",
                    "name": "",
                    "type": "uint256"
                }
            ],
            "stateMutability": "view",
            "type": "function"
        },
        {
            "inputs": [],
            "name": "USER_CREDIT_BUDGET",
            "outputs": [
                {
                    "internalType": "uint256",
                    "name": "",
                    "type": "uint256"
                }
            ],
            "stateMutability": "view",
            "type": "function"
        },
        {
            "inputs": [
                {
                    "internalType": "string",
                    "name": "_statement",
                    "type": "string"
                }
            ],
            "name": "addStatement",
            "outputs": [],
            "stateMutability": "nonpayable",
            "type": "function"
        },
        {
            "inputs": [
                {
                    "internalType": "uint256",
                    "name": "_rank",
                    "type": "uint256"
                }
            ],
            "name": "getRankedStatement",
            "outputs": [
                {
                    "components": [
                        {
                            "internalType": "uint256",
                            "name": "id",
                            "type": "uint256"
                        },
                        {
                            "internalType": "string",
                            "name": "text",
                            "type": "string"
                        },
                        {
                            "internalType": "uint256",
                            "name": "voteCount",
                            "type": "uint256"
                        },
                        {
                            "internalType": "uint256",
                            "name": "rank",
                            "type": "uint256"
                        },
                        {
                            "internalType": "uint256",
                            "name": "timestamp",
                            "type": "uint256"
                        }
                    ],
                    "internalType": "struct Forum.Statement",
                    "name": "",
                    "type": "tuple"
                }
            ],
            "stateMutability": "view",
            "type": "function"
        },
        {
            "inputs": [],
            "name": "getUserVoteSet",
            "outputs": [
                {
                    "components": [
                        {
                            "internalType": "uint256",
                            "name": "statementId",
                            "type": "uint256"
                        },
                        {
                            "internalType": "uint256",
                            "name": "voteCount",
                            "type": "uint256"
                        }
                    ],
                    "internalType": "struct Forum.Vote[]",
                    "name": "",
                    "type": "tuple[]"
                }
            ],
            "stateMutability": "view",
            "type": "function"
        },
        {
            "inputs": [],
            "name": "statementCount",
            "outputs": [
                {
                    "internalType": "uint256",
                    "name": "",
                    "type": "uint256"
                }
            ],
            "stateMutability": "view",
            "type": "function"
        },
        {
            "inputs": [
                {
                    "internalType": "uint256",
                    "name": "",
                    "type": "uint256"
                }
            ],
            "name": "statementRankings",
            "outputs": [
                {
                    "internalType": "uint256",
                    "name": "",
                    "type": "uint256"
                }
            ],
            "stateMutability": "view",
            "type": "function"
        },
        {
            "inputs": [
                {
                    "internalType": "uint256",
                    "name": "",
                    "type": "uint256"
                }
            ],
            "name": "statements",
            "outputs": [
                {
                    "internalType": "uint256",
                    "name": "id",
                    "type": "uint256"
                },
                {
                    "internalType": "string",
                    "name": "text",
                    "type": "string"
                },
                {
                    "internalType": "uint256",
                    "name": "voteCount",
                    "type": "uint256"
                },
                {
                    "internalType": "uint256",
                    "name": "rank",
                    "type": "uint256"
                },
                {
                    "internalType": "uint256",
                    "name": "timestamp",
                    "type": "uint256"
                }
            ],
            "stateMutability": "view",
            "type": "function"
        },
        {
            "inputs": [
                {
                    "internalType": "address",
                    "name": "",
                    "type": "address"
                }
            ],
            "name": "userUsedCredits",
            "outputs": [
                {
                    "internalType": "uint256",
                    "name": "",
                    "type": "uint256"
                }
            ],
            "stateMutability": "view",
            "type": "function"
        },
        {
            "inputs": [
                {
                    "internalType": "address",
                    "name": "",
                    "type": "address"
                },
                {
                    "internalType": "uint256",
                    "name": "",
                    "type": "uint256"
                }
            ],
            "name": "userVoteSets",
            "outputs": [
                {
                    "internalType": "uint256",
                    "name": "statementId",
                    "type": "uint256"
                },
                {
                    "internalType": "uint256",
                    "name": "voteCount",
                    "type": "uint256"
                }
            ],
            "stateMutability": "view",
            "type": "function"
        },
        {
            "inputs": [
                {
                    "internalType": "address",
                    "name": "",
                    "type": "address"
                },
                {
                    "internalType": "uint256",
                    "name": "",
                    "type": "uint256"
                }
            ],
            "name": "userVotes",
            "outputs": [
                {
                    "internalType": "uint256",
                    "name": "",
                    "type": "uint256"
                }
            ],
            "stateMutability": "view",
            "type": "function"
        },
        {
            "inputs": [
                {
                    "components": [
                        {
                            "internalType": "uint256",
                            "name": "statementId",
                            "type": "uint256"
                        },
                        {
                            "internalType": "uint256",
                            "name": "voteCount",
                            "type": "uint256"
                        }
                    ],
                    "internalType": "struct Forum.Vote[]",
                    "name": "_voteSet",
                    "type": "tuple[]"
                }
            ],
            "name": "vote",
            "outputs": [],
            "stateMutability": "nonpayable",
            "type": "function"
        }
    ],
    "bytecode": "0x6080604052348015600e575f5ffd5b506111bc8061001c5f395ff3fe608060405234801561000f575f5ffd5b50600436106100b1575f3560e01c8063ac3f58a81161006e578063ac3f58a814610176578063ce4bee841461019a578063dbf7b3bd146101a2578063e06e7169146101b5578063ed0e62bf146101bd578063f689e578146101c5575f5ffd5b806306592064146100b55780633443206a146100e257806349a673cd146100f75780635bcf3fc6146101245780638b3511f714610137578063ab43d62f14610161575b5f5ffd5b6100c86100c3366004610ccc565b6101e5565b604080519283526020830191909152015b60405180910390f35b6100f56100f0366004610cf4565b61021d565b005b610116610105366004610d62565b60056020525f908152604090205481565b6040519081526020016100d9565b6100f5610132366004610d82565b610367565b610116610145366004610ccc565b600360209081525f928352604080842090915290825290205481565b61016961073e565b6040516100d99190610de3565b610189610184366004610e31565b6107b8565b6040516100d9959493929190610e76565b610116606481565b6101166101b0366004610e31565b61086b565b6101165f5481565b610116607881565b6101d86101d3366004610e31565b61088a565b6040516100d99190610eab565b6004602052815f5260405f2081815481106101fe575f80fd5b5f91825260209091206002909102018054600190910154909250905082565b60788111156102735760405162461bcd60e51b815260206004820181905260248201527f53746174656d656e742065786365656473206d6178696d756d206c656e67746860448201526064015b60405180910390fd5b6040518060a001604052805f54815260200183838080601f0160208091040260200160405190810160405280939291908181526020018383808284375f920182905250938552505050602080830182905281546040808501829052426060909501949094528252600180825292909120835181559083015190918201906102fa9082610f92565b506040820151600280830191909155606083015160038301556080909201516004909101555f805482546001810184559282527f405787fa12a823e0f2b7631cc41b3ba8828b3321ca811111fa75cd3aa3bb5ace9092018290558061035e83611061565b91905055505050565b806103b45760405162461bcd60e51b815260206004820152601860248201527f566f7465207365742063616e6e6f7420626520656d7074790000000000000000604482015260640161026a565b5f805b828110156105e1575f8484838181106103d2576103d2611079565b9050604002018036038101906103e8919061108d565b90505f54815f0151106104345760405162461bcd60e51b8152602060048201526014602482015273125b9d985b1a59081cdd185d195b595b9d08125160621b604482015260640161026a565b335f908152600360209081526040808320845184528252909120549082015181036104605750506105d9565b5f5f5f8460200151841061047b578460200151846001610483565b8385602001515f5b919450925090505f61049584806110dc565b61049f84806110dc565b6104a991906110f9565b905081156104c2576104bb818961110c565b97506104cf565b6104cc8189611132565b97505b60208087018051335f9081526003845260408082208b5183528552808220929092559151895183526001909352902060020154869161050d91611159565b61051791906110f9565b86515f90815260016020526040902060020155855161053590610a09565b6020808701516040805181815260049181019190915263766f746560e01b60608201529182015233907f1a88b3046a78b92a0b0d984b0a88148e6ae2cd21b99982fac5f289deed06b3e99060800160405180910390a285515f818152600160209081526040918290206002015491519182527f626cdb61843cc2ddedf8067ed5ddf8eae2986f91d810a0ac2e3b38dd2edd844d910160405180910390a25050505050505b6001016103b7565b50335f908152600560205260409020546064906105ff908390611132565b131561065c5760405162461bcd60e51b815260206004820152602660248201527f496e73756666696369656e74206372656469747320666f72207468697320766f6044820152651d19481cd95d60d21b606482015260840161026a565b5f81121561068b5761066d8161116c565b335f9081526005602052604090205461068691906110f9565b6106a5565b335f908152600560205260409020546106a5908290611159565b335f90815260056020908152604080832093909355600490529081206106ca91610c72565b5f5b8281101561073857335f9081526004602052604090208484838181106106f4576106f4611079565b83546001810185555f948552602090942060409091029290920192600202909101905061072e828281358155602090910135600190910155565b50506001016106cc565b50505050565b335f908152600460209081526040808320805482518185028101850190935280835260609492939192909184015b828210156107af578382905f5260205f2090600202016040518060400160405290815f82015481526020016001820154815250508152602001906001019061076c565b50505050905090565b600160208190525f9182526040909120805491810180546107d890610f0e565b80601f016020809104026020016040519081016040528092919081815260200182805461080490610f0e565b801561084f5780601f106108265761010080835404028352916020019161084f565b820191905f5260205f20905b81548152906001019060200180831161083257829003601f168201915b5050505050908060020154908060030154908060040154905085565b6002818154811061087a575f80fd5b5f91825260209091200154905081565b6108b86040518060a001604052805f8152602001606081526020015f81526020015f81526020015f81525090565b5f5482106109145760405162461bcd60e51b815260206004820152602360248201527f52616e6b206973206c6172676572207468616e2073746174656d656e7420636f6044820152621d5b9d60ea1b606482015260840161026a565b60015f6002848154811061092a5761092a611079565b905f5260205f20015481526020019081526020015f206040518060a00160405290815f820154815260200160018201805461096490610f0e565b80601f016020809104026020016040519081016040528092919081815260200182805461099090610f0e565b80156109db5780601f106109b2576101008083540402835291602001916109db565b820191905f5260205f20905b8154815290600101906020018083116109be57829003601f168201915b5050505050815260200160028201548152602001600382015481526020016004820154815250509050919050565b5f818152600160208181526040808420815160a08101909252805482529283018054919392840191610a3a90610f0e565b80601f0160208091040260200160405190810160405280929190818152602001828054610a6690610f0e565b8015610ab15780601f10610a8857610100808354040283529160200191610ab1565b820191905f5260205f20905b815481529060010190602001808311610a9457829003601f168201915b50505050508152602001600282015481526020016003820154815260200160048201548152505090505f816060015190505f826040015190505b8115610bf2575f6001816002610b0183876110f9565b81548110610b1157610b11611079565b905f5260205f20015481526020019081526020015f2060020154905080821115610bf0575f610b416001856110f9565b905060015f60028381548110610b5957610b59611079565b905f5260205f20015481526020019081526020015f205f015460028581548110610b8557610b85611079565b905f5260205f2001819055508360015f60028481548110610ba857610ba8611079565b905f5260205f20015481526020019081526020015f2060030181905550845f015160028281548110610bdc57610bdc611079565b5f918252602090912001559250610aeb9050565b505b60015f54610c0091906110f9565b821015610c59575f6001816002610c178684611159565b81548110610c2757610c27611079565b905f5260205f20015481526020019081526020015f2060020154905080821015610c57575f610b41846001611159565b505b505f928352600160205260409092206003019190915550565b5080545f8255600202905f5260205f2090810190610c909190610c93565b50565b5b80821115610cad575f8082556001820155600201610c94565b5090565b80356001600160a01b0381168114610cc7575f5ffd5b919050565b5f5f60408385031215610cdd575f5ffd5b610ce683610cb1565b946020939093013593505050565b5f5f60208385031215610d05575f5ffd5b823567ffffffffffffffff811115610d1b575f5ffd5b8301601f81018513610d2b575f5ffd5b803567ffffffffffffffff811115610d41575f5ffd5b856020828401011115610d52575f5ffd5b6020919091019590945092505050565b5f60208284031215610d72575f5ffd5b610d7b82610cb1565b9392505050565b5f5f60208385031215610d93575f5ffd5b823567ffffffffffffffff811115610da9575f5ffd5b8301601f81018513610db9575f5ffd5b803567ffffffffffffffff811115610dcf575f5ffd5b8560208260061b8401011115610d52575f5ffd5b602080825282518282018190525f918401906040840190835b81811015610e26578351805184526020908101518185015290930192604090920191600101610dfc565b509095945050505050565b5f60208284031215610e41575f5ffd5b5035919050565b5f81518084528060208401602086015e5f602082860101526020601f19601f83011685010191505092915050565b85815260a060208201525f610e8e60a0830187610e48565b604083019590955250606081019290925260809091015292915050565b60208152815160208201525f602083015160a06040840152610ed060c0840182610e48565b90506040840151606084015260608401516080840152608084015160a08401528091505092915050565b634e487b7160e01b5f52604160045260245ffd5b600181811c90821680610f2257607f821691505b602082108103610f4057634e487b7160e01b5f52602260045260245ffd5b50919050565b601f821115610f8d57805f5260205f20601f840160051c81016020851015610f6b5750805b601f840160051c820191505b81811015610f8a575f8155600101610f77565b50505b505050565b815167ffffffffffffffff811115610fac57610fac610efa565b610fc081610fba8454610f0e565b84610f46565b6020601f821160018114610ff2575f8315610fdb5750848201515b5f19600385901b1c1916600184901b178455610f8a565b5f84815260208120601f198516915b828110156110215787850151825560209485019460019092019101611001565b508482101561103e57868401515f19600387901b60f8161c191681555b50505050600190811b01905550565b634e487b7160e01b5f52601160045260245ffd5b5f600182016110725761107261104d565b5060010190565b634e487b7160e01b5f52603260045260245ffd5b5f604082840312801561109e575f5ffd5b506040805190810167ffffffffffffffff811182821017156110c2576110c2610efa565b604052823581526020928301359281019290925250919050565b80820281158282048414176110f3576110f361104d565b92915050565b818103818111156110f3576110f361104d565b8181035f83128015838313168383128216171561112b5761112b61104d565b5092915050565b8082018281125f8312801582168215821617156111515761115161104d565b505092915050565b808201808211156110f3576110f361104d565b5f600160ff1b82016111805761118061104d565b505f039056fea2646970667358221220655f9b82ad63849d08a464b7fd8ef6bf0b98931ec43d232e0a9cc71f1b8e0eca64736f6c634300081c0033",
    "linkReferences": {},
    "deployedLinkReferences": {},
    "immutableReferences": {},
    "inputSourceName": "project/contracts/Forum.sol",
    "buildInfoId": "solc-0_8_28-7a5006d0407a9344b04f3b92444e129a50c64a17"
}